{
  "_format": "hh-sol-artifact-1",
  "contractName": "TestRegistry",
  "sourceName": "contracts/TestRegistry.sol",
  "abi": [
    {
      "anonymous": false,
      "inputs": [
        {
          "indexed": true,
          "internalType": "address",
          "name": "previousOwner",
          "type": "address"
        },
        {
          "indexed": true,
          "internalType": "address",
          "name": "newOwner",
          "type": "address"
        }
      ],
      "name": "OwnershipTransferred",
      "type": "event"
    },
    {
      "anonymous": false,
      "inputs": [
        {
          "indexed": false,
          "internalType": "bytes32",
          "name": "uuid",
          "type": "bytes32"
        }
      ],
      "name": "VerificationRemoved",
      "type": "event"
    },
    {
      "anonymous": false,
      "inputs": [
        {
          "components": [
            {
              "internalType": "bytes32",
              "name": "uuid",
              "type": "bytes32"
            },
            {
              "internalType": "address",
              "name": "verifier",
              "type": "address"
            },
            {
              "internalType": "address",
              "name": "subject",
              "type": "address"
            },
            {
              "internalType": "uint256",
              "name": "entryTime",
              "type": "uint256"
            },
            {
              "internalType": "uint256",
              "name": "expirationTime",
              "type": "uint256"
            },
            {
              "internalType": "bool",
              "name": "revoked",
              "type": "bool"
            }
          ],
          "indexed": false,
          "internalType": "struct VerificationRecord",
          "name": "verificationRecord",
          "type": "tuple"
        }
      ],
      "name": "VerificationResultConfirmed",
      "type": "event"
    },
    {
      "anonymous": false,
      "inputs": [
        {
          "indexed": false,
          "internalType": "bytes32",
          "name": "uuid",
          "type": "bytes32"
        }
      ],
      "name": "VerificationRevoked",
      "type": "event"
    },
    {
      "anonymous": false,
      "inputs": [
        {
          "indexed": false,
          "internalType": "address",
          "name": "verifier",
          "type": "address"
        },
        {
          "components": [
            {
              "internalType": "bytes32",
              "name": "name",
              "type": "bytes32"
            },
            {
              "internalType": "string",
              "name": "did",
              "type": "string"
            },
            {
              "internalType": "string",
              "name": "url",
              "type": "string"
            },
            {
              "internalType": "address",
              "name": "signer",
              "type": "address"
            }
          ],
          "indexed": false,
          "internalType": "struct VerifierInfo",
          "name": "verifierInfo",
          "type": "tuple"
        }
      ],
      "name": "VerifierAdded",
      "type": "event"
    },
    {
      "anonymous": false,
      "inputs": [
        {
          "indexed": false,
          "internalType": "address",
          "name": "verifier",
          "type": "address"
        }
      ],
      "name": "VerifierRemoved",
      "type": "event"
    },
    {
      "anonymous": false,
      "inputs": [
        {
          "indexed": false,
          "internalType": "address",
          "name": "verifier",
          "type": "address"
        },
        {
          "components": [
            {
              "internalType": "bytes32",
              "name": "name",
              "type": "bytes32"
            },
            {
              "internalType": "string",
              "name": "did",
              "type": "string"
            },
            {
              "internalType": "string",
              "name": "url",
              "type": "string"
            },
            {
              "internalType": "address",
              "name": "signer",
              "type": "address"
            }
          ],
          "indexed": false,
          "internalType": "struct VerifierInfo",
          "name": "verifierInfo",
          "type": "tuple"
        }
      ],
      "name": "VerifierUpdated",
      "type": "event"
    },
    {
      "inputs": [
        {
          "internalType": "address",
          "name": "verifierAddress",
          "type": "address"
        },
        {
          "components": [
            {
              "internalType": "bytes32",
              "name": "name",
              "type": "bytes32"
            },
            {
              "internalType": "string",
              "name": "did",
              "type": "string"
            },
            {
              "internalType": "string",
              "name": "url",
              "type": "string"
            },
            {
              "internalType": "address",
              "name": "signer",
              "type": "address"
            }
          ],
          "internalType": "struct VerifierInfo",
          "name": "verifierInfo",
          "type": "tuple"
        }
      ],
      "name": "addVerifier",
      "outputs": [],
      "stateMutability": "nonpayable",
      "type": "function"
    },
    {
      "inputs": [
        {
          "internalType": "bytes32",
          "name": "uuid",
          "type": "bytes32"
        }
      ],
      "name": "getVerification",
      "outputs": [
        {
          "components": [
            {
              "internalType": "bytes32",
              "name": "uuid",
              "type": "bytes32"
            },
            {
              "internalType": "address",
              "name": "verifier",
              "type": "address"
            },
            {
              "internalType": "address",
              "name": "subject",
              "type": "address"
            },
            {
              "internalType": "uint256",
              "name": "entryTime",
              "type": "uint256"
            },
            {
              "internalType": "uint256",
              "name": "expirationTime",
              "type": "uint256"
            },
            {
              "internalType": "bool",
              "name": "revoked",
              "type": "bool"
            }
          ],
          "internalType": "struct VerificationRecord",
          "name": "",
          "type": "tuple"
        }
      ],
      "stateMutability": "view",
      "type": "function"
    },
    {
      "inputs": [],
      "name": "getVerificationCount",
      "outputs": [
        {
          "internalType": "uint256",
          "name": "",
          "type": "uint256"
        }
      ],
      "stateMutability": "view",
      "type": "function"
    },
    {
      "inputs": [
        {
          "internalType": "address",
          "name": "subject",
          "type": "address"
        }
      ],
      "name": "getVerificationsForSubject",
      "outputs": [
        {
          "components": [
            {
              "internalType": "bytes32",
              "name": "uuid",
              "type": "bytes32"
            },
            {
              "internalType": "address",
              "name": "verifier",
              "type": "address"
            },
            {
              "internalType": "address",
              "name": "subject",
              "type": "address"
            },
            {
              "internalType": "uint256",
              "name": "entryTime",
              "type": "uint256"
            },
            {
              "internalType": "uint256",
              "name": "expirationTime",
              "type": "uint256"
            },
            {
              "internalType": "bool",
              "name": "revoked",
              "type": "bool"
            }
          ],
          "internalType": "struct VerificationRecord[]",
          "name": "",
          "type": "tuple[]"
        }
      ],
      "stateMutability": "view",
      "type": "function"
    },
    {
      "inputs": [
        {
          "internalType": "address",
          "name": "verifier",
          "type": "address"
        }
      ],
      "name": "getVerificationsForVerifier",
      "outputs": [
        {
          "components": [
            {
              "internalType": "bytes32",
              "name": "uuid",
              "type": "bytes32"
            },
            {
              "internalType": "address",
              "name": "verifier",
              "type": "address"
            },
            {
              "internalType": "address",
              "name": "subject",
              "type": "address"
            },
            {
              "internalType": "uint256",
              "name": "entryTime",
              "type": "uint256"
            },
            {
              "internalType": "uint256",
              "name": "expirationTime",
              "type": "uint256"
            },
            {
              "internalType": "bool",
              "name": "revoked",
              "type": "bool"
            }
          ],
          "internalType": "struct VerificationRecord[]",
          "name": "",
          "type": "tuple[]"
        }
      ],
      "stateMutability": "view",
      "type": "function"
    },
    {
      "inputs": [
        {
          "internalType": "address",
          "name": "verifierAddress",
          "type": "address"
        }
      ],
      "name": "getVerifier",
      "outputs": [
        {
          "components": [
            {
              "internalType": "bytes32",
              "name": "name",
              "type": "bytes32"
            },
            {
              "internalType": "string",
              "name": "did",
              "type": "string"
            },
            {
              "internalType": "string",
              "name": "url",
              "type": "string"
            },
            {
              "internalType": "address",
              "name": "signer",
              "type": "address"
            }
          ],
          "internalType": "struct VerifierInfo",
          "name": "",
          "type": "tuple"
        }
      ],
      "stateMutability": "view",
      "type": "function"
    },
    {
      "inputs": [],
      "name": "getVerifierCount",
      "outputs": [
        {
          "internalType": "uint256",
          "name": "",
          "type": "uint256"
        }
      ],
      "stateMutability": "view",
      "type": "function"
    },
    {
      "inputs": [
        {
          "internalType": "address",
          "name": "subject",
          "type": "address"
        }
      ],
      "name": "isVerified",
      "outputs": [
        {
          "internalType": "bool",
          "name": "",
          "type": "bool"
        }
      ],
      "stateMutability": "view",
      "type": "function"
    },
    {
      "inputs": [
        {
          "internalType": "address",
          "name": "account",
          "type": "address"
        }
      ],
      "name": "isVerifier",
      "outputs": [
        {
          "internalType": "bool",
          "name": "",
          "type": "bool"
        }
      ],
      "stateMutability": "view",
      "type": "function"
    },
    {
      "inputs": [],
      "name": "owner",
      "outputs": [
        {
          "internalType": "address",
          "name": "",
          "type": "address"
        }
      ],
      "stateMutability": "view",
      "type": "function"
    },
    {
      "inputs": [
        {
          "components": [
            {
              "internalType": "string",
              "name": "schema",
              "type": "string"
            },
            {
              "internalType": "address",
              "name": "subject",
              "type": "address"
            },
            {
              "internalType": "uint256",
              "name": "expiration",
              "type": "uint256"
            }
          ],
          "internalType": "struct VerificationResult",
          "name": "verificationResult",
          "type": "tuple"
        },
        {
          "internalType": "bytes",
          "name": "signature",
          "type": "bytes"
        }
      ],
      "name": "registerVerification",
      "outputs": [
        {
          "components": [
            {
              "internalType": "bytes32",
              "name": "uuid",
              "type": "bytes32"
            },
            {
              "internalType": "address",
              "name": "verifier",
              "type": "address"
            },
            {
              "internalType": "address",
              "name": "subject",
              "type": "address"
            },
            {
              "internalType": "uint256",
              "name": "entryTime",
              "type": "uint256"
            },
            {
              "internalType": "uint256",
              "name": "expirationTime",
              "type": "uint256"
            },
            {
              "internalType": "bool",
              "name": "revoked",
              "type": "bool"
            }
          ],
          "internalType": "struct VerificationRecord",
          "name": "",
          "type": "tuple"
        }
      ],
      "stateMutability": "nonpayable",
      "type": "function"
    },
    {
      "inputs": [
        {
          "internalType": "bytes32",
          "name": "uuid",
          "type": "bytes32"
        }
      ],
      "name": "removeVerification",
      "outputs": [],
      "stateMutability": "nonpayable",
      "type": "function"
    },
    {
      "inputs": [
        {
          "internalType": "address",
          "name": "verifierAddress",
          "type": "address"
        }
      ],
      "name": "removeVerifier",
      "outputs": [],
      "stateMutability": "nonpayable",
      "type": "function"
    },
    {
      "inputs": [],
      "name": "renounceOwnership",
      "outputs": [],
      "stateMutability": "nonpayable",
      "type": "function"
    },
    {
      "inputs": [
        {
          "internalType": "bytes32",
          "name": "uuid",
          "type": "bytes32"
        }
      ],
      "name": "revokeVerification",
      "outputs": [],
      "stateMutability": "nonpayable",
      "type": "function"
    },
    {
      "inputs": [
        {
          "internalType": "address",
          "name": "newOwner",
          "type": "address"
        }
      ],
      "name": "transferOwnership",
      "outputs": [],
      "stateMutability": "nonpayable",
      "type": "function"
    },
    {
      "inputs": [
        {
          "internalType": "address",
          "name": "verifierAddress",
          "type": "address"
        },
        {
          "components": [
            {
              "internalType": "bytes32",
              "name": "name",
              "type": "bytes32"
            },
            {
              "internalType": "string",
              "name": "did",
              "type": "string"
            },
            {
              "internalType": "string",
              "name": "url",
              "type": "string"
            },
            {
              "internalType": "address",
              "name": "signer",
              "type": "address"
            }
          ],
          "internalType": "struct VerifierInfo",
          "name": "verifierInfo",
          "type": "tuple"
        }
      ],
      "name": "updateVerifier",
      "outputs": [],
      "stateMutability": "nonpayable",
      "type": "function"
    },
    {
      "inputs": [
        {
          "components": [
            {
              "internalType": "string",
              "name": "schema",
              "type": "string"
            },
            {
              "internalType": "address",
              "name": "subject",
              "type": "address"
            },
            {
              "internalType": "uint256",
              "name": "expiration",
              "type": "uint256"
            }
          ],
          "internalType": "struct VerificationResult",
          "name": "verificationResult",
          "type": "tuple"
        },
        {
          "internalType": "bytes",
          "name": "signature",
          "type": "bytes"
        }
      ],
      "name": "validate",
      "outputs": [
        {
          "components": [
            {
              "internalType": "bytes32",
              "name": "uuid",
              "type": "bytes32"
            },
            {
              "internalType": "address",
              "name": "verifier",
              "type": "address"
            },
            {
              "internalType": "address",
              "name": "subject",
              "type": "address"
            },
            {
              "internalType": "uint256",
              "name": "entryTime",
              "type": "uint256"
            },
            {
              "internalType": "uint256",
              "name": "expirationTime",
              "type": "uint256"
            },
            {
              "internalType": "bool",
              "name": "revoked",
              "type": "bool"
            }
          ],
          "internalType": "struct VerificationRecord",
          "name": "",
          "type": "tuple"
        }
      ],
      "stateMutability": "view",
      "type": "function"
    }
  ],
  "bytecode": "0x6101406040523480156200001257600080fd5b506040518060400160405280601481526020017f566572696669636174696f6e52656769737472790000000000000000000000008152506040518060400160405280600381526020017f312e3000000000000000000000000000000000000000000000000000000000008152506200009f620000936200015a60201b60201c565b6200016260201b60201c565b60008280519060200120905060008280519060200120905060007f8b73c3c69bb8fe3d512ecc4cf759cc79239f7b179b0ffacaa9a75d522b39400f90508260e081815250508161010081815250504660a08181525050620001088184846200022660201b60201c565b608081815250503073ffffffffffffffffffffffffffffffffffffffff1660c08173ffffffffffffffffffffffffffffffffffffffff1660601b8152505080610120818152505050505050506200033a565b600033905090565b60008060009054906101000a900473ffffffffffffffffffffffffffffffffffffffff169050816000806101000a81548173ffffffffffffffffffffffffffffffffffffffff021916908373ffffffffffffffffffffffffffffffffffffffff1602179055508173ffffffffffffffffffffffffffffffffffffffff168173ffffffffffffffffffffffffffffffffffffffff167f8be0079c531659141344cd1fd0a4f28419497f9722a3daafe3b4186f6b6457e060405160405180910390a35050565b600083838346306040516020016200024395949392919062000295565b6040516020818303038152906040528051906020012090509392505050565b6200026d81620002f2565b82525050565b6200027e8162000306565b82525050565b6200028f8162000330565b82525050565b600060a082019050620002ac600083018862000273565b620002bb602083018762000273565b620002ca604083018662000273565b620002d9606083018562000284565b620002e8608083018462000262565b9695505050505050565b6000620002ff8262000310565b9050919050565b6000819050919050565b600073ffffffffffffffffffffffffffffffffffffffff82169050919050565b6000819050919050565b60805160a05160c05160601c60e05161010051610120516141d46200038d600039600061259b015260006125dd015260006125bc015260006124f1015260006125470152600061257001526141d46000f3fe608060405234801561001057600080fd5b50600436106101165760003560e01c806394ef2440116100a2578063b9c688a711610071578063b9c688a7146102f1578063ca2dfd0a1461030f578063ed2ffd281461032b578063edaf4b891461035b578063f2fde38b1461038b57610116565b806394ef244014610245578063958c39ff1461027557806399cf1a1d146102a5578063b9209e33146102c157610116565b8063417469a7116100e9578063417469a7146101c95780634e4de26d146101e557806370eba12414610201578063715018a61461021d5780638da5cb5b1461022757610116565b8063059ce95d1461011b5780630e9e848f1461014b5780631f05b3741461017b5780633310521814610199575b600080fd5b61013560048036038101906101309190612f59565b6103a7565b6040516101429190613df1565b60405180910390f35b61016560048036038101906101609190612f59565b61060c565b6040516101729190613aa1565b60405180910390f35b610183610946565b6040516101909190613e13565b60405180910390f35b6101b360048036038101906101ae9190612f59565b610950565b6040516101c09190613ac3565b60405180910390f35b6101e360048036038101906101de9190612f82565b6109a2565b005b6101ff60048036038101906101fa9190612fd6565b610c33565b005b61021b60048036038101906102169190612fd6565b610e29565b005b610225610fbe565b005b61022f611046565b60405161023c9190613a56565b60405180910390f35b61025f600480360381019061025a9190612fd6565b61106f565b60405161026c9190613dd6565b60405180910390f35b61028f600480360381019061028a9190612fff565b611181565b60405161029c9190613dd6565b60405180910390f35b6102bf60048036038101906102ba9190612f82565b6112e4565b005b6102db60048036038101906102d69190612f59565b61158c565b6040516102e89190613ac3565b60405180910390f35b6102f9611828565b6040516103069190613e13565b60405180910390f35b61032960048036038101906103249190612f59565b611832565b005b61034560048036038101906103409190612f59565b611add565b6040516103529190613aa1565b60405180910390f35b61037560048036038101906103709190612fff565b611e17565b6040516103829190613dd6565b60405180910390f35b6103a560048036038101906103a09190612f59565b611e31565b005b6103af612ba3565b6000801b600160008473ffffffffffffffffffffffffffffffffffffffff1673ffffffffffffffffffffffffffffffffffffffff168152602001908152602001600020600001541415610437576040517f08c379a000000000000000000000000000000000000000000000000000000000815260040161042e90613d36565b60405180910390fd5b600160008373ffffffffffffffffffffffffffffffffffffffff1673ffffffffffffffffffffffffffffffffffffffff1681526020019081526020016000206040518060800160405290816000820154815260200160018201805461049b90613ffb565b80601f01602080910402602001604051908101604052809291908181526020018280546104c790613ffb565b80156105145780601f106104e957610100808354040283529160200191610514565b820191906000526020600020905b8154815290600101906020018083116104f757829003601f168201915b5050505050815260200160028201805461052d90613ffb565b80601f016020809104026020016040519081016040528092919081815260200182805461055990613ffb565b80156105a65780601f1061057b576101008083540402835291602001916105a6565b820191906000526020600020905b81548152906001019060200180831161058957829003601f168201915b505050505081526020016003820160009054906101000a900473ffffffffffffffffffffffffffffffffffffffff1673ffffffffffffffffffffffffffffffffffffffff1673ffffffffffffffffffffffffffffffffffffffff16815250509050919050565b6060600073ffffffffffffffffffffffffffffffffffffffff168273ffffffffffffffffffffffffffffffffffffffff16141561067e576040517f08c379a000000000000000000000000000000000000000000000000000000000815260040161067590613db6565b60405180910390fd5b6000600660008473ffffffffffffffffffffffffffffffffffffffff1673ffffffffffffffffffffffffffffffffffffffff16815260200190815260200160002080548060200260200160405190810160405280929190818152602001828054801561070957602002820191906000526020600020905b8154815260200190600101908083116106f5575b505050505090506000815167ffffffffffffffff811115610753577f4e487b7100000000000000000000000000000000000000000000000000000000600052604160045260246000fd5b60405190808252806020026020018201604052801561078c57816020015b610779612be4565b8152602001906001900390816107715790505b50905060005b825181101561093b576000600460008584815181106107da577f4e487b7100000000000000000000000000000000000000000000000000000000600052603260045260246000fd5b602002602001015181526020019081526020016000206040518060c0016040529081600082015481526020016001820160009054906101000a900473ffffffffffffffffffffffffffffffffffffffff1673ffffffffffffffffffffffffffffffffffffffff1673ffffffffffffffffffffffffffffffffffffffff1681526020016002820160009054906101000a900473ffffffffffffffffffffffffffffffffffffffff1673ffffffffffffffffffffffffffffffffffffffff1673ffffffffffffffffffffffffffffffffffffffff16815260200160038201548152602001600482015481526020016005820160009054906101000a900460ff16151515158152505090508083838151811061091c577f4e487b7100000000000000000000000000000000000000000000000000000000600052603260045260246000fd5b60200260200101819052505080806109339061402d565b915050610792565b508092505050919050565b6000600754905090565b60008060001b600160008473ffffffffffffffffffffffffffffffffffffffff1673ffffffffffffffffffffffffffffffffffffffff1681526020019081526020016000206000015414159050919050565b6109aa611f29565b73ffffffffffffffffffffffffffffffffffffffff166109c8611046565b73ffffffffffffffffffffffffffffffffffffffff1614610a1e576040517f08c379a0000000000000000000000000000000000000000000000000000000008152600401610a1590613d16565b60405180910390fd5b6000801b600160008473ffffffffffffffffffffffffffffffffffffffff1673ffffffffffffffffffffffffffffffffffffffff168152602001908152602001600020600001541415610aa6576040517f08c379a0000000000000000000000000000000000000000000000000000000008152600401610a9d90613d36565b60405180910390fd5b80600160008473ffffffffffffffffffffffffffffffffffffffff1673ffffffffffffffffffffffffffffffffffffffff168152602001908152602001600020600082015181600001556020820151816001019080519060200190610b0c929190612c4b565b506040820151816002019080519060200190610b29929190612c4b565b5060608201518160030160006101000a81548173ffffffffffffffffffffffffffffffffffffffff021916908373ffffffffffffffffffffffffffffffffffffffff1602179055509050508160026000836060015173ffffffffffffffffffffffffffffffffffffffff1673ffffffffffffffffffffffffffffffffffffffff16815260200190815260200160002060006101000a81548173ffffffffffffffffffffffffffffffffffffffff021916908373ffffffffffffffffffffffffffffffffffffffff1602179055507fcf8ca726ba9d58efa48fa96d3184c211fcce84e8b5e9a3c83c10c1ba9fd392c68282604051610c27929190613a71565b60405180910390a15050565b6000801b600160003373ffffffffffffffffffffffffffffffffffffffff1673ffffffffffffffffffffffffffffffffffffffff168152602001908152602001600020600001541415610cbb576040517f08c379a0000000000000000000000000000000000000000000000000000000008152600401610cb290613c56565b60405180910390fd5b3373ffffffffffffffffffffffffffffffffffffffff166004600083815260200190815260200160002060010160009054906101000a900473ffffffffffffffffffffffffffffffffffffffff1673ffffffffffffffffffffffffffffffffffffffff1614610d5f576040517f08c379a0000000000000000000000000000000000000000000000000000000008152600401610d5690613d56565b60405180910390fd5b600460008281526020019081526020016000206000808201600090556001820160006101000a81549073ffffffffffffffffffffffffffffffffffffffff02191690556002820160006101000a81549073ffffffffffffffffffffffffffffffffffffffff0219169055600382016000905560048201600090556005820160006101000a81549060ff021916905550507f9abf56d49e4ef717f3418600d3ed66048ca2ed8e3e630a70b76a71dd2142def581604051610e1e9190613ade565b60405180910390a150565b6000801b600160003373ffffffffffffffffffffffffffffffffffffffff1673ffffffffffffffffffffffffffffffffffffffff168152602001908152602001600020600001541415610eb1576040517f08c379a0000000000000000000000000000000000000000000000000000000008152600401610ea890613c56565b60405180910390fd5b3373ffffffffffffffffffffffffffffffffffffffff166004600083815260200190815260200160002060010160009054906101000a900473ffffffffffffffffffffffffffffffffffffffff1673ffffffffffffffffffffffffffffffffffffffff1614610f55576040517f08c379a0000000000000000000000000000000000000000000000000000000008152600401610f4c90613d96565b60405180910390fd5b60016004600083815260200190815260200160002060050160006101000a81548160ff0219169083151502179055507f071ad1bb208a373a52e72fe5d8aa7755d658f88e197e666bf1a6d09d0ddb505681604051610fb39190613ade565b60405180910390a150565b610fc6611f29565b73ffffffffffffffffffffffffffffffffffffffff16610fe4611046565b73ffffffffffffffffffffffffffffffffffffffff161461103a576040517f08c379a000000000000000000000000000000000000000000000000000000000815260040161103190613d16565b60405180910390fd5b6110446000611f31565b565b60008060009054906101000a900473ffffffffffffffffffffffffffffffffffffffff16905090565b611077612be4565b600460008381526020019081526020016000206040518060c0016040529081600082015481526020016001820160009054906101000a900473ffffffffffffffffffffffffffffffffffffffff1673ffffffffffffffffffffffffffffffffffffffff1673ffffffffffffffffffffffffffffffffffffffff1681526020016002820160009054906101000a900473ffffffffffffffffffffffffffffffffffffffff1673ffffffffffffffffffffffffffffffffffffffff1673ffffffffffffffffffffffffffffffffffffffff16815260200160038201548152602001600482015481526020016005820160009054906101000a900460ff1615151515815250509050919050565b611189612be4565b6000801b600160003373ffffffffffffffffffffffffffffffffffffffff1673ffffffffffffffffffffffffffffffffffffffff168152602001908152602001600020600001541415611211576040517f08c379a000000000000000000000000000000000000000000000000000000000815260040161120890613c56565b60405180910390fd5b61121a83611ff5565b60006112268484611ff8565b90503373ffffffffffffffffffffffffffffffffffffffff16816020015173ffffffffffffffffffffffffffffffffffffffff161461129a576040517f08c379a000000000000000000000000000000000000000000000000000000000815260040161129190613c76565b60405180910390fd5b6112a381612284565b7fb13e5e7efcce7bbc67740f0fe050563d4fd1f5cc7096c3a32cb901711c95ab54816040516112d29190613dd6565b60405180910390a18091505092915050565b6112ec611f29565b73ffffffffffffffffffffffffffffffffffffffff1661130a611046565b73ffffffffffffffffffffffffffffffffffffffff1614611360576040517f08c379a000000000000000000000000000000000000000000000000000000000815260040161135790613d16565b60405180910390fd5b6000801b600160008473ffffffffffffffffffffffffffffffffffffffff1673ffffffffffffffffffffffffffffffffffffffff16815260200190815260200160002060000154146113e7576040517f08c379a00000000000000000000000000000000000000000000000000000000081526004016113de90613cb6565b60405180910390fd5b80600160008473ffffffffffffffffffffffffffffffffffffffff1673ffffffffffffffffffffffffffffffffffffffff16815260200190815260200160002060008201518160000155602082015181600101908051906020019061144d929190612c4b565b50604082015181600201908051906020019061146a929190612c4b565b5060608201518160030160006101000a81548173ffffffffffffffffffffffffffffffffffffffff021916908373ffffffffffffffffffffffffffffffffffffffff1602179055509050508160026000836060015173ffffffffffffffffffffffffffffffffffffffff1673ffffffffffffffffffffffffffffffffffffffff16815260200190815260200160002060006101000a81548173ffffffffffffffffffffffffffffffffffffffff021916908373ffffffffffffffffffffffffffffffffffffffff1602179055506003600081548092919061154a9061402d565b91905055507f57fdb74cb7ec2177b327961b74feef54dcb8102656cf6484ea992a84eb1bb4d08282604051611580929190613a71565b60405180910390a15050565b60008073ffffffffffffffffffffffffffffffffffffffff168273ffffffffffffffffffffffffffffffffffffffff1614156115fd576040517f08c379a00000000000000000000000000000000000000000000000000000000081526004016115f490613db6565b60405180910390fd5b6000600560008473ffffffffffffffffffffffffffffffffffffffff1673ffffffffffffffffffffffffffffffffffffffff16815260200190815260200160002080548060200260200160405190810160405280929190818152602001828054801561168857602002820191906000526020600020905b815481526020019060010190808311611674575b5050505050905060005b815181101561181c576000600460008484815181106116da577f4e487b7100000000000000000000000000000000000000000000000000000000600052603260045260246000fd5b602002602001015181526020019081526020016000206040518060c0016040529081600082015481526020016001820160009054906101000a900473ffffffffffffffffffffffffffffffffffffffff1673ffffffffffffffffffffffffffffffffffffffff1673ffffffffffffffffffffffffffffffffffffffff1681526020016002820160009054906101000a900473ffffffffffffffffffffffffffffffffffffffff1673ffffffffffffffffffffffffffffffffffffffff1673ffffffffffffffffffffffffffffffffffffffff16815260200160038201548152602001600482015481526020016005820160009054906101000a900460ff16151515158152505090508060a001511580156117f75750428160800151115b156118085760019350505050611823565b5080806118149061402d565b915050611692565b5060009150505b919050565b6000600354905090565b61183a611f29565b73ffffffffffffffffffffffffffffffffffffffff16611858611046565b73ffffffffffffffffffffffffffffffffffffffff16146118ae576040517f08c379a00000000000000000000000000000000000000000000000000000000081526004016118a590613d16565b60405180910390fd5b6000801b600160008373ffffffffffffffffffffffffffffffffffffffff1673ffffffffffffffffffffffffffffffffffffffff168152602001908152602001600020600001541415611936576040517f08c379a000000000000000000000000000000000000000000000000000000000815260040161192d90613cd6565b60405180910390fd5b60026000600160008473ffffffffffffffffffffffffffffffffffffffff1673ffffffffffffffffffffffffffffffffffffffff16815260200190815260200160002060030160009054906101000a900473ffffffffffffffffffffffffffffffffffffffff1673ffffffffffffffffffffffffffffffffffffffff1673ffffffffffffffffffffffffffffffffffffffff16815260200190815260200160002060006101000a81549073ffffffffffffffffffffffffffffffffffffffff0219169055600160008273ffffffffffffffffffffffffffffffffffffffff1673ffffffffffffffffffffffffffffffffffffffff168152602001908152602001600020600080820160009055600182016000611a529190612cd1565b600282016000611a629190612cd1565b6003820160006101000a81549073ffffffffffffffffffffffffffffffffffffffff0219169055505060036000815480929190611a9e90613fd1565b91905055507f44a3cd4eb5cc5748f6169df057b1cb2ae4c383e87cd94663c430e095d4cba42481604051611ad29190613a56565b60405180910390a150565b6060600073ffffffffffffffffffffffffffffffffffffffff168273ffffffffffffffffffffffffffffffffffffffff161415611b4f576040517f08c379a0000000000000000000000000000000000000000000000000000000008152600401611b4690613db6565b60405180910390fd5b6000600560008473ffffffffffffffffffffffffffffffffffffffff1673ffffffffffffffffffffffffffffffffffffffff168152602001908152602001600020805480602002602001604051908101604052809291908181526020018280548015611bda57602002820191906000526020600020905b815481526020019060010190808311611bc6575b505050505090506000815167ffffffffffffffff811115611c24577f4e487b7100000000000000000000000000000000000000000000000000000000600052604160045260246000fd5b604051908082528060200260200182016040528015611c5d57816020015b611c4a612be4565b815260200190600190039081611c425790505b50905060005b8251811015611e0c57600060046000858481518110611cab577f4e487b7100000000000000000000000000000000000000000000000000000000600052603260045260246000fd5b602002602001015181526020019081526020016000206040518060c0016040529081600082015481526020016001820160009054906101000a900473ffffffffffffffffffffffffffffffffffffffff1673ffffffffffffffffffffffffffffffffffffffff1673ffffffffffffffffffffffffffffffffffffffff1681526020016002820160009054906101000a900473ffffffffffffffffffffffffffffffffffffffff1673ffffffffffffffffffffffffffffffffffffffff1673ffffffffffffffffffffffffffffffffffffffff16815260200160038201548152602001600482015481526020016005820160009054906101000a900460ff161515151581525050905080838381518110611ded577f4e487b7100000000000000000000000000000000000000000000000000000000600052603260045260246000fd5b6020026020010181905250508080611e049061402d565b915050611c63565b508092505050919050565b611e1f612be4565b611e298383611ff8565b905092915050565b611e39611f29565b73ffffffffffffffffffffffffffffffffffffffff16611e57611046565b73ffffffffffffffffffffffffffffffffffffffff1614611ead576040517f08c379a0000000000000000000000000000000000000000000000000000000008152600401611ea490613d16565b60405180910390fd5b600073ffffffffffffffffffffffffffffffffffffffff168173ffffffffffffffffffffffffffffffffffffffff161415611f1d576040517f08c379a0000000000000000000000000000000000000000000000000000000008152600401611f1490613c36565b60405180910390fd5b611f2681611f31565b50565b600033905090565b60008060009054906101000a900473ffffffffffffffffffffffffffffffffffffffff169050816000806101000a81548173ffffffffffffffffffffffffffffffffffffffff021916908373ffffffffffffffffffffffffffffffffffffffff1602179055508173ffffffffffffffffffffffffffffffffffffffff168173ffffffffffffffffffffffffffffffffffffffff167f8be0079c531659141344cd1fd0a4f28419497f9722a3daafe3b4186f6b6457e060405160405180910390a35050565b50565b612000612be4565b600061206a7f10f37c780798f8d6ccc5deba550b287b1ccef3a50b9007536dc9ce57c6f066838560000151805190602001208660200151876040015160405160200161204f9493929190613af9565b60405160208183030381529060405280519060200120612462565b90506000612078828561247c565b90506000600260008373ffffffffffffffffffffffffffffffffffffffff1673ffffffffffffffffffffffffffffffffffffffff16815260200190815260200160002060009054906101000a900473ffffffffffffffffffffffffffffffffffffffff1690508173ffffffffffffffffffffffffffffffffffffffff16600160008373ffffffffffffffffffffffffffffffffffffffff1673ffffffffffffffffffffffffffffffffffffffff16815260200190815260200160002060030160009054906101000a900473ffffffffffffffffffffffffffffffffffffffff1673ffffffffffffffffffffffffffffffffffffffff16146121ae576040517f08c379a00000000000000000000000000000000000000000000000000000000081526004016121a590613d76565b60405180910390fd5b428660400151116121f4576040517f08c379a00000000000000000000000000000000000000000000000000000000081526004016121eb90613bf6565b60405180910390fd5b60006040518060c001604052806000801b81526020018373ffffffffffffffffffffffffffffffffffffffff168152602001886020015173ffffffffffffffffffffffffffffffffffffffff16815260200142815260200188604001518152602001600015158152509050600061226a826124a3565b905080826000018181525050819550505050505092915050565b600760008154809291906122979061402d565b91905055508060046000836000015181526020019081526020016000206000820151816000015560208201518160010160006101000a81548173ffffffffffffffffffffffffffffffffffffffff021916908373ffffffffffffffffffffffffffffffffffffffff16021790555060408201518160020160006101000a81548173ffffffffffffffffffffffffffffffffffffffff021916908373ffffffffffffffffffffffffffffffffffffffff160217905550606082015181600301556080820151816004015560a08201518160050160006101000a81548160ff02191690831515021790555090505060056000826040015173ffffffffffffffffffffffffffffffffffffffff1673ffffffffffffffffffffffffffffffffffffffff1681526020019081526020016000208160000151908060018154018082558091505060019003906000526020600020016000909190919091505560066000826020015173ffffffffffffffffffffffffffffffffffffffff1673ffffffffffffffffffffffffffffffffffffffff1681526020019081526020016000208160000151908060018154018082558091505060019003906000526020600020016000909190919091505550565b600061247561246f6124ed565b83612607565b9050919050565b600080600061248b858561263a565b91509150612498816126bd565b819250505092915050565b600081602001518260400151836060015184608001516007546040516020016124d09594939291906139c0565b604051602081830303815290604052805190602001209050919050565b60007f000000000000000000000000000000000000000000000000000000000000000073ffffffffffffffffffffffffffffffffffffffff163073ffffffffffffffffffffffffffffffffffffffff1614801561256957507f000000000000000000000000000000000000000000000000000000000000000046145b15612596577f00000000000000000000000000000000000000000000000000000000000000009050612604565b6126017f00000000000000000000000000000000000000000000000000000000000000007f00000000000000000000000000000000000000000000000000000000000000007f0000000000000000000000000000000000000000000000000000000000000000612a0e565b90505b90565b6000828260405160200161261c929190613a1f565b60405160208183030381529060405280519060200120905092915050565b60008060418351141561267c5760008060006020860151925060408601519150606086015160001a905061267087828585612a48565b945094505050506126b6565b6040835114156126ad5760008060208501519150604085015190506126a2868383612b55565b9350935050506126b6565b60006002915091505b9250929050565b600060048111156126f7577f4e487b7100000000000000000000000000000000000000000000000000000000600052602160045260246000fd5b816004811115612730577f4e487b7100000000000000000000000000000000000000000000000000000000600052602160045260246000fd5b141561273b57612a0b565b60016004811115612775577f4e487b7100000000000000000000000000000000000000000000000000000000600052602160045260246000fd5b8160048111156127ae577f4e487b7100000000000000000000000000000000000000000000000000000000600052602160045260246000fd5b14156127ef576040517f08c379a00000000000000000000000000000000000000000000000000000000081526004016127e690613bd6565b60405180910390fd5b60026004811115612829577f4e487b7100000000000000000000000000000000000000000000000000000000600052602160045260246000fd5b816004811115612862577f4e487b7100000000000000000000000000000000000000000000000000000000600052602160045260246000fd5b14156128a3576040517f08c379a000000000000000000000000000000000000000000000000000000000815260040161289a90613c16565b60405180910390fd5b600360048111156128dd577f4e487b7100000000000000000000000000000000000000000000000000000000600052602160045260246000fd5b816004811115612916577f4e487b7100000000000000000000000000000000000000000000000000000000600052602160045260246000fd5b1415612957576040517f08c379a000000000000000000000000000000000000000000000000000000000815260040161294e90613c96565b60405180910390fd5b600480811115612990577f4e487b7100000000000000000000000000000000000000000000000000000000600052602160045260246000fd5b8160048111156129c9577f4e487b7100000000000000000000000000000000000000000000000000000000600052602160045260246000fd5b1415612a0a576040517f08c379a0000000000000000000000000000000000000000000000000000000008152600401612a0190613cf6565b60405180910390fd5b5b50565b60008383834630604051602001612a29959493929190613b3e565b6040516020818303038152906040528051906020012090509392505050565b6000807f7fffffffffffffffffffffffffffffff5d576e7357a4501ddfe92f46681b20a08360001c1115612a83576000600391509150612b4c565b601b8560ff1614158015612a9b5750601c8560ff1614155b15612aad576000600491509150612b4c565b600060018787878760405160008152602001604052604051612ad29493929190613b91565b6020604051602081039080840390855afa158015612af4573d6000803e3d6000fd5b505050602060405103519050600073ffffffffffffffffffffffffffffffffffffffff168173ffffffffffffffffffffffffffffffffffffffff161415612b4357600060019250925050612b4c565b80600092509250505b94509492505050565b6000806000807f7fffffffffffffffffffffffffffffffffffffffffffffffffffffffffffffff85169150601b8560ff1c019050612b9587828885612a48565b935093505050935093915050565b6040518060800160405280600080191681526020016060815260200160608152602001600073ffffffffffffffffffffffffffffffffffffffff1681525090565b6040518060c0016040528060008019168152602001600073ffffffffffffffffffffffffffffffffffffffff168152602001600073ffffffffffffffffffffffffffffffffffffffff16815260200160008152602001600081526020016000151581525090565b828054612c5790613ffb565b90600052602060002090601f016020900481019282612c795760008555612cc0565b82601f10612c9257805160ff1916838001178555612cc0565b82800160010185558215612cc0579182015b82811115612cbf578251825591602001919060010190612ca4565b5b509050612ccd9190612d11565b5090565b508054612cdd90613ffb565b6000825580601f10612cef5750612d0e565b601f016020900490600052602060002090810190612d0d9190612d11565b5b50565b5b80821115612d2a576000816000905550600101612d12565b5090565b6000612d41612d3c84613e5f565b613e2e565b905082815260208101848484011115612d5957600080fd5b612d64848285613f8f565b509392505050565b6000612d7f612d7a84613e8f565b613e2e565b905082815260208101848484011115612d9757600080fd5b612da2848285613f8f565b509392505050565b600081359050612db981614159565b92915050565b600081359050612dce81614170565b92915050565b600082601f830112612de557600080fd5b8135612df5848260208601612d2e565b91505092915050565b600082601f830112612e0f57600080fd5b8135612e1f848260208601612d6c565b91505092915050565b600060608284031215612e3a57600080fd5b612e446060613e2e565b9050600082013567ffffffffffffffff811115612e6057600080fd5b612e6c84828501612dfe565b6000830152506020612e8084828501612daa565b6020830152506040612e9484828501612f44565b60408301525092915050565b600060808284031215612eb257600080fd5b612ebc6080613e2e565b90506000612ecc84828501612dbf565b600083015250602082013567ffffffffffffffff811115612eec57600080fd5b612ef884828501612dfe565b602083015250604082013567ffffffffffffffff811115612f1857600080fd5b612f2484828501612dfe565b6040830152506060612f3884828501612daa565b60608301525092915050565b600081359050612f5381614187565b92915050565b600060208284031215612f6b57600080fd5b6000612f7984828501612daa565b91505092915050565b60008060408385031215612f9557600080fd5b6000612fa385828601612daa565b925050602083013567ffffffffffffffff811115612fc057600080fd5b612fcc85828601612ea0565b9150509250929050565b600060208284031215612fe857600080fd5b6000612ff684828501612dbf565b91505092915050565b6000806040838503121561301257600080fd5b600083013567ffffffffffffffff81111561302c57600080fd5b61303885828601612e28565b925050602083013567ffffffffffffffff81111561305557600080fd5b61306185828601612dd4565b9150509250929050565b6000613077838361381c565b60c08301905092915050565b61308c81613f30565b82525050565b61309b81613f30565b82525050565b6130b26130ad82613f30565b614076565b82525050565b60006130c382613ecf565b6130cd8185613ef2565b93506130d883613ebf565b8060005b838110156131095781516130f0888261306b565b97506130fb83613ee5565b9250506001810190506130dc565b5085935050505092915050565b61311f81613f42565b82525050565b61312e81613f42565b82525050565b61313d81613f4e565b82525050565b61314c81613f4e565b82525050565b61316361315e82613f4e565b614088565b82525050565b600061317482613eda565b61317e8185613f03565b935061318e818560208601613f9e565b6131978161413b565b840191505092915050565b60006131af601883613f14565b91507f45434453413a20696e76616c6964207369676e617475726500000000000000006000830152602082019050919050565b60006131ef603783613f14565b91507f566572696669636174696f6e52656769737472793a205665726966696361746960008301527f6f6e20636f6e6669726d6174696f6e20657870697265640000000000000000006020830152604082019050919050565b6000613255601f83613f14565b91507f45434453413a20696e76616c6964207369676e6174757265206c656e677468006000830152602082019050919050565b6000613295602683613f14565b91507f4f776e61626c653a206e6577206f776e657220697320746865207a65726f206160008301527f64647265737300000000000000000000000000000000000000000000000000006020830152604082019050919050565b60006132fb600283613f25565b91507f19010000000000000000000000000000000000000000000000000000000000006000830152600282019050919050565b600061333b602e83613f14565b91507f566572696669636174696f6e52656769737472793a2043616c6c65722069732060008301527f6e6f7420612056657269666965720000000000000000000000000000000000006020830152604082019050919050565b60006133a1604483613f14565b91507f566572696669636174696f6e52656769737472793a2043616c6c65722069732060008301527f6e6f7420746865207665726966696572206f662074686520766572696669636160208301527f74696f6e000000000000000000000000000000000000000000000000000000006040830152606082019050919050565b600061342d602283613f14565b91507f45434453413a20696e76616c6964207369676e6174757265202773272076616c60008301527f75650000000000000000000000000000000000000000000000000000000000006020830152604082019050919050565b6000613493602d83613f14565b91507f566572696669636174696f6e52656769737472793a205665726966696572204160008301527f64647265737320457869737473000000000000000000000000000000000000006020830152604082019050919050565b60006134f9603583613f14565b91507f566572696669636174696f6e52656769737472793a205665726966696572204160008301527f64647265737320446f6573204e6f7420457869737400000000000000000000006020830152604082019050919050565b600061355f602283613f14565b91507f45434453413a20696e76616c6964207369676e6174757265202776272076616c60008301527f75650000000000000000000000000000000000000000000000000000000000006020830152604082019050919050565b60006135c5602083613f14565b91507f4f776e61626c653a2063616c6c6572206973206e6f7420746865206f776e65726000830152602082019050919050565b6000613605602e83613f14565b91507f566572696669636174696f6e52656769737472793a20556e6b6e6f776e20566560008301527f72696669657220416464726573730000000000000000000000000000000000006020830152604082019050919050565b600061366b604983613f14565b91507f566572696669636174696f6e52656769737472793a2043616c6c65722069732060008301527f6e6f7420746865207665726966696572206f6620746865207265666572656e6360208301527f6564207265636f726400000000000000000000000000000000000000000000006040830152606082019050919050565b60006136f7603683613f14565b91507f566572696669636174696f6e52656769737472793a205369676e65642064696760008301527f6573742063616e6e6f74206265207665726966696564000000000000000000006020830152604082019050919050565b600061375d603983613f14565b91507f566572696669636174696f6e52656769737472793a2043616c6c65722069732060008301527f6e6f7420746865206f726967696e616c207665726966696572000000000000006020830152604082019050919050565b60006137c3602583613f14565b91507f566572696669636174696f6e52656769737472793a20496e76616c696420616460008301527f64726573730000000000000000000000000000000000000000000000000000006020830152604082019050919050565b60c0820160008201516138326000850182613134565b5060208201516138456020850182613083565b5060408201516138586040850182613083565b50606082015161386b606085018261397c565b50608082015161387e608085018261397c565b5060a082015161389160a0850182613116565b50505050565b60c0820160008201516138ad6000850182613134565b5060208201516138c06020850182613083565b5060408201516138d36040850182613083565b5060608201516138e6606085018261397c565b5060808201516138f9608085018261397c565b5060a082015161390c60a0850182613116565b50505050565b600060808301600083015161392a6000860182613134565b50602083015184820360208601526139428282613169565b9150506040830151848203604086015261395c8282613169565b91505060608301516139716060860182613083565b508091505092915050565b61398581613f78565b82525050565b61399481613f78565b82525050565b6139ab6139a682613f78565b6140a4565b82525050565b6139ba81613f82565b82525050565b60006139cc82886130a1565b6014820191506139dc82876130a1565b6014820191506139ec828661399a565b6020820191506139fc828561399a565b602082019150613a0c828461399a565b6020820191508190509695505050505050565b6000613a2a826132ee565b9150613a368285613152565b602082019150613a468284613152565b6020820191508190509392505050565b6000602082019050613a6b6000830184613092565b92915050565b6000604082019050613a866000830185613092565b8181036020830152613a988184613912565b90509392505050565b60006020820190508181036000830152613abb81846130b8565b905092915050565b6000602082019050613ad86000830184613125565b92915050565b6000602082019050613af36000830184613143565b92915050565b6000608082019050613b0e6000830187613143565b613b1b6020830186613143565b613b286040830185613092565b613b35606083018461398b565b95945050505050565b600060a082019050613b536000830188613143565b613b606020830187613143565b613b6d6040830186613143565b613b7a606083018561398b565b613b876080830184613092565b9695505050505050565b6000608082019050613ba66000830187613143565b613bb360208301866139b1565b613bc06040830185613143565b613bcd6060830184613143565b95945050505050565b60006020820190508181036000830152613bef816131a2565b9050919050565b60006020820190508181036000830152613c0f816131e2565b9050919050565b60006020820190508181036000830152613c2f81613248565b9050919050565b60006020820190508181036000830152613c4f81613288565b9050919050565b60006020820190508181036000830152613c6f8161332e565b9050919050565b60006020820190508181036000830152613c8f81613394565b9050919050565b60006020820190508181036000830152613caf81613420565b9050919050565b60006020820190508181036000830152613ccf81613486565b9050919050565b60006020820190508181036000830152613cef816134ec565b9050919050565b60006020820190508181036000830152613d0f81613552565b9050919050565b60006020820190508181036000830152613d2f816135b8565b9050919050565b60006020820190508181036000830152613d4f816135f8565b9050919050565b60006020820190508181036000830152613d6f8161365e565b9050919050565b60006020820190508181036000830152613d8f816136ea565b9050919050565b60006020820190508181036000830152613daf81613750565b9050919050565b60006020820190508181036000830152613dcf816137b6565b9050919050565b600060c082019050613deb6000830184613897565b92915050565b60006020820190508181036000830152613e0b8184613912565b905092915050565b6000602082019050613e28600083018461398b565b92915050565b6000604051905081810181811067ffffffffffffffff82111715613e5557613e5461410c565b5b8060405250919050565b600067ffffffffffffffff821115613e7a57613e7961410c565b5b601f19601f8301169050602081019050919050565b600067ffffffffffffffff821115613eaa57613ea961410c565b5b601f19601f8301169050602081019050919050565b6000819050602082019050919050565b600081519050919050565b600081519050919050565b6000602082019050919050565b600082825260208201905092915050565b600082825260208201905092915050565b600082825260208201905092915050565b600081905092915050565b6000613f3b82613f58565b9050919050565b60008115159050919050565b6000819050919050565b600073ffffffffffffffffffffffffffffffffffffffff82169050919050565b6000819050919050565b600060ff82169050919050565b82818337600083830152505050565b60005b83811015613fbc578082015181840152602081019050613fa1565b83811115613fcb576000848401525b50505050565b6000613fdc82613f78565b91506000821415613ff057613fef6140ae565b5b600182039050919050565b6000600282049050600182168061401357607f821691505b60208210811415614027576140266140dd565b5b50919050565b600061403882613f78565b91507fffffffffffffffffffffffffffffffffffffffffffffffffffffffffffffffff82141561406b5761406a6140ae565b5b600182019050919050565b600061408182614092565b9050919050565b6000819050919050565b600061409d8261414c565b9050919050565b6000819050919050565b7f4e487b7100000000000000000000000000000000000000000000000000000000600052601160045260246000fd5b7f4e487b7100000000000000000000000000000000000000000000000000000000600052602260045260246000fd5b7f4e487b7100000000000000000000000000000000000000000000000000000000600052604160045260246000fd5b6000601f19601f8301169050919050565b60008160601b9050919050565b61416281613f30565b811461416d57600080fd5b50565b61417981613f4e565b811461418457600080fd5b50565b61419081613f78565b811461419b57600080fd5b5056fea2646970667358221220a71820959fb9a41475afcd80ce722b976c7721ad259287b0d3cad460feba674d64736f6c63430008000033",
  "linkReferences": {},
  "deployedLinkReferences": {}
}